{
  "contractName": "Create2Factory",
  "abi": [
    {
      "anonymous": false,
      "inputs": [
        {
          "indexed": false,
          "internalType": "address",
          "name": "addr",
          "type": "address"
        }
      ],
      "name": "Deploy",
      "type": "event"
    },
    {
      "inputs": [
        {
          "internalType": "uint256",
          "name": "_loanAmount",
          "type": "uint256"
        },
        {
          "internalType": "uint256",
          "name": "_salt",
          "type": "uint256"
        }
      ],
      "name": "deploy",
      "outputs": [],
      "stateMutability": "nonpayable",
      "type": "function"
    },
    {
      "inputs": [
        {
          "internalType": "bytes",
          "name": "bytecode",
          "type": "bytes"
        },
        {
          "internalType": "uint256",
          "name": "_salt",
          "type": "uint256"
        }
      ],
      "name": "getAddress",
      "outputs": [
        {
          "internalType": "address",
          "name": "",
          "type": "address"
        }
      ],
      "stateMutability": "view",
      "type": "function",
      "constant": true
    },
    {
      "inputs": [
        {
          "internalType": "address",
          "name": "_student",
          "type": "address"
        },
        {
          "internalType": "uint256",
          "name": "_loanAmount",
          "type": "uint256"
        }
      ],
      "name": "getBytecode",
      "outputs": [
        {
          "internalType": "bytes",
          "name": "",
          "type": "bytes"
        }
      ],
      "stateMutability": "pure",
      "type": "function",
      "constant": true
    }
  ],
  "bytecode": "0x608060405234801561001057600080fd5b50610dd9806100206000396000f3fe608060405234801561001057600080fd5b50600436106100415760003560e01c80635e79bb601461004657806381871cbc1461006257806394ca2cb514610092575b600080fd5b610060600480360381019061005b919061032f565b6100c2565b005b61007c6004803603810190610077919061029f565b610140565b6040516100899190610505565b60405180910390f35b6100ac60048036038101906100a791906102db565b6101b6565b6040516100b991906104c1565b60405180910390f35b60008160001b33846040516100d690610200565b6100e19291906104dc565b8190604051809103906000f5905080158015610101573d6000803e3d6000fd5b5090507f55ea6c6b31543d8e2ec6a72f71a79c0f4b72ed0d4757172b043d8f4f4cd848488160405161013391906104c1565b60405180910390a1505050565b606060006040518060200161015490610200565b6020820181038252601f19601f82011660405250905080848460405160200161017e9291906104dc565b60405160208183030381529060405260405160200161019e92919061049d565b60405160208183030381529060405291505092915050565b60008060ff60f81b308486805190602001206040516020016101db949392919061044f565b6040516020818303038152906040528051906020012090508060001c91505092915050565b6106838061072183390190565b600061022061021b84610558565b610527565b90508281526020810184848401111561023857600080fd5b610243848285610621565b509392505050565b60008135905061025a816106f2565b92915050565b600082601f83011261027157600080fd5b813561028184826020860161020d565b91505092915050565b60008135905061029981610709565b92915050565b600080604083850312156102b257600080fd5b60006102c08582860161024b565b92505060206102d18582860161028a565b9150509250929050565b600080604083850312156102ee57600080fd5b600083013567ffffffffffffffff81111561030857600080fd5b61031485828601610260565b92505060206103258582860161028a565b9150509250929050565b6000806040838503121561034257600080fd5b60006103508582860161028a565b92505060206103618582860161028a565b9150509250929050565b610374816105af565b82525050565b61038b610386826105af565b610663565b82525050565b6103a261039d826105c1565b610675565b82525050565b6103b96103b4826105ed565b61067f565b82525050565b60006103ca82610588565b6103d48185610593565b93506103e4818560208601610630565b6103ed816106d4565b840191505092915050565b600061040382610588565b61040d81856105a4565b935061041d818560208601610630565b80840191505092915050565b61043281610617565b82525050565b61044961044482610617565b61069b565b82525050565b600061045b8287610391565b60018201915061046b828661037a565b60148201915061047b8285610438565b60208201915061048b82846103a8565b60208201915081905095945050505050565b60006104a982856103f8565b91506104b582846103f8565b91508190509392505050565b60006020820190506104d6600083018461036b565b92915050565b60006040820190506104f1600083018561036b565b6104fe6020830184610429565b9392505050565b6000602082019050818103600083015261051f81846103bf565b905092915050565b6000604051905081810181811067ffffffffffffffff8211171561054e5761054d6106a5565b5b8060405250919050565b600067ffffffffffffffff821115610573576105726106a5565b5b601f19601f8301169050602081019050919050565b600081519050919050565b600082825260208201905092915050565b600081905092915050565b60006105ba826105f7565b9050919050565b60007fff0000000000000000000000000000000000000000000000000000000000000082169050919050565b6000819050919050565b600073ffffffffffffffffffffffffffffffffffffffff82169050919050565b6000819050919050565b82818337600083830152505050565b60005b8381101561064e578082015181840152602081019050610633565b8381111561065d576000848401525b50505050565b600061066e82610689565b9050919050565b6000819050919050565b6000819050919050565b6000610694826106e5565b9050919050565b6000819050919050565b7f4e487b7100000000000000000000000000000000000000000000000000000000600052604160045260246000fd5b6000601f19601f8301169050919050565b60008160601b9050919050565b6106fb816105af565b811461070657600080fd5b50565b61071281610617565b811461071d57600080fd5b5056fe608060405234801561001057600080fd5b50604051610683380380610683833981810160405281019061003291906100ba565b816000806101000a81548173ffffffffffffffffffffffffffffffffffffffff021916908373ffffffffffffffffffffffffffffffffffffffff16021790555080600181905550600060028190555060006003819055505050610160565b60008151905061009f81610132565b92915050565b6000815190506100b481610149565b92915050565b600080604083850312156100cd57600080fd5b60006100db85828601610090565b92505060206100ec858286016100a5565b9150509250929050565b600061010182610108565b9050919050565b600073ffffffffffffffffffffffffffffffffffffffff82169050919050565b6000819050919050565b61013b816100f6565b811461014657600080fd5b50565b61015281610128565b811461015d57600080fd5b50565b6105148061016f6000396000f3fe608060405234801561001057600080fd5b50600436106100625760003560e01c8063371fd8e6146100675780633dbafc1c14610083578063699450e8146100a15780639d585f7f146100bf578063dabaae11146100dd578063ee86afd8146100fb575b600080fd5b610081600480360381019061007c9190610284565b610119565b005b61008b610215565b60405161009891906103a6565b60405180910390f35b6100a961021b565b6040516100b6919061034b565b60405180910390f35b6100c761023f565b6040516100d491906103a6565b60405180910390f35b6100e5610245565b6040516100f291906103a6565b60405180910390f35b610103610269565b60405161011091906103a6565b60405180910390f35b60008054906101000a900473ffffffffffffffffffffffffffffffffffffffff1673ffffffffffffffffffffffffffffffffffffffff163373ffffffffffffffffffffffffffffffffffffffff16146101a7576040517f08c379a000000000000000000000000000000000000000000000000000000000815260040161019e90610386565b60405180910390fd5b600154816002546101b891906103d2565b11156101f9576040517f08c379a00000000000000000000000000000000000000000000000000000000081526004016101f090610366565b60405180910390fd5b806002600082825461020b91906103d2565b9250508190555050565b60035481565b60008054906101000a900473ffffffffffffffffffffffffffffffffffffffff1681565b60015481565b600060035460025460015461025a9190610428565b6102649190610428565b905090565b60025481565b60008135905061027e816104c7565b92915050565b60006020828403121561029657600080fd5b60006102a48482850161026f565b91505092915050565b6102b68161045c565b82525050565b60006102c9600e836103c1565b91507f43616e6e6f74206f7665727061790000000000000000000000000000000000006000830152602082019050919050565b6000610309601c836103c1565b91507f4f6e6c7920746865206170706c6963616e742063616e207265706179000000006000830152602082019050919050565b6103458161048e565b82525050565b600060208201905061036060008301846102ad565b92915050565b6000602082019050818103600083015261037f816102bc565b9050919050565b6000602082019050818103600083015261039f816102fc565b9050919050565b60006020820190506103bb600083018461033c565b92915050565b600082825260208201905092915050565b60006103dd8261048e565b91506103e88361048e565b9250827fffffffffffffffffffffffffffffffffffffffffffffffffffffffffffffffff0382111561041d5761041c610498565b5b828201905092915050565b60006104338261048e565b915061043e8361048e565b92508282101561045157610450610498565b5b828203905092915050565b60006104678261046e565b9050919050565b600073ffffffffffffffffffffffffffffffffffffffff82169050919050565b6000819050919050565b7f4e487b7100000000000000000000000000000000000000000000000000000000600052601160045260246000fd5b6104d08161048e565b81146104db57600080fd5b5056fea26469706673582212201e5f5179d22709b3cb519dde03900893657b3f33bed0a286bb00cb368d79447064736f6c63430008000033a26469706673582212201ca7aa5f53069b56f5d6c9f0922c7d3657546372343093cb5ea0a822c8af594d64736f6c63430008000033",
  "immutableReferences": {},
  "source": "// SPDX-License-Identifier: MIT\n\npragma solidity ^0.8.0;\n\ncontract LoanRepayment {\n    address public student;\n    uint public loanAmount;\n    uint public amountRepaid;\n    uint public discountGiven;\n    \n    constructor(address _student, uint256 _loanAmount) {\n        student = _student;\n        loanAmount = _loanAmount;\n        amountRepaid = 0;\n        discountGiven = 0;\n    }\n\n\n    function repay(uint256 amount) public {\n        require(msg.sender == student, \"Only the applicant can repay\");\n        require(amountRepaid + amount <= loanAmount, \"Cannot overpay\");\n        amountRepaid += amount;\n    }\n\n     function getRemainingAmount() public view returns (uint256) {\n        return loanAmount - amountRepaid - discountGiven;\n    }\n}\n\ncontract Create2Factory {\n\n    event Deploy(address addr);\n\n    // to deploy another contract using owner address and salt specified\n\n    function deploy(uint256 _loanAmount, uint _salt) external {\n        LoanRepayment _contract = new LoanRepayment{\n\n            salt: bytes32(_salt)\n\n        }(msg.sender, _loanAmount);\n\n        emit Deploy(address(_contract));\n\n    }\n\n    // get the computed address before the contract DeployWithCreate2 deployed using Bytecode of contract DeployWithCreate2 and salt specified by the sender\n\n    function getAddress(bytes memory bytecode, uint _salt) public view returns (address) {\n\n        bytes32 hash = keccak256(\n\n            abi.encodePacked(\n\n                bytes1(0xff), address(this), _salt, keccak256(bytecode)\n\n          )\n\n        );\n\n        return address (uint160(uint(hash)));\n\n    }\n\n    // get the ByteCode of the contract DeployWithCreate2\n\n    function getBytecode(address _student, uint _loanAmount) public pure returns (bytes memory) {\n\n        bytes memory bytecode = type(LoanRepayment).creationCode;\n\n        return abi.encodePacked(bytecode, abi.encode(_student, _loanAmount));\n\n    }\n\n}",
  "sourcePath": "/Users/ryan/Developer/ScholarChain/blockchain/contracts/FactoryContract.sol",
  "compiler": {
    "name": "solc",
    "version": "0.8.0+commit.c7dfd78e.Emscripten.clang"
  },
  "schemaVersion": "3.4.16",
  "updatedAt": "2024-12-23T05:54:58.454Z",
  "networkType": "ethereum",
  "devdoc": {
    "kind": "dev",
    "methods": {},
    "version": 1
  },
  "userdoc": {
    "kind": "user",
    "methods": {},
    "version": 1
  }
}