{
  "contractName": "DonationTracker",
  "abi": [
    {
      "anonymous": false,
      "inputs": [
        {
          "indexed": true,
          "internalType": "address",
          "name": "donor",
          "type": "address"
        },
        {
          "indexed": false,
          "internalType": "uint256",
          "name": "amount",
          "type": "uint256"
        }
      ],
      "name": "DonationReceived",
      "type": "event"
    },
    {
      "anonymous": false,
      "inputs": [
        {
          "indexed": true,
          "internalType": "address",
          "name": "donor",
          "type": "address"
        }
      ],
      "name": "DonorAdded",
      "type": "event"
    },
    {
      "inputs": [],
      "name": "totalDonations",
      "outputs": [
        {
          "internalType": "uint256",
          "name": "",
          "type": "uint256"
        }
      ],
      "stateMutability": "view",
      "type": "function",
      "constant": true
    },
    {
      "inputs": [
        {
          "internalType": "uint256",
          "name": "amount",
          "type": "uint256"
        }
      ],
      "name": "donate",
      "outputs": [],
      "stateMutability": "nonpayable",
      "type": "function"
    },
    {
      "inputs": [
        {
          "internalType": "address",
          "name": "donor",
          "type": "address"
        }
      ],
      "name": "getDonorInfo",
      "outputs": [
        {
          "internalType": "uint256",
          "name": "totalDonated",
          "type": "uint256"
        },
        {
          "internalType": "uint256",
          "name": "donationCount",
          "type": "uint256"
        }
      ],
      "stateMutability": "view",
      "type": "function",
      "constant": true
    },
    {
      "inputs": [],
      "name": "getAllDonors",
      "outputs": [
        {
          "internalType": "address[]",
          "name": "",
          "type": "address[]"
        }
      ],
      "stateMutability": "view",
      "type": "function",
      "constant": true
    }
  ],
  "bytecode": "0x608060405234801561001057600080fd5b506107a0806100206000396000f3fe608060405234801561001057600080fd5b506004361061004c5760003560e01c806398e36b0414610051578063c46a60a51461006f578063de2ed893146100a0578063f14faf6f146100be575b600080fd5b6100596100da565b60405161006691906105ab565b60405180910390f35b6100896004803603810190610084919061045f565b610168565b604051610097929190610608565b60405180910390f35b6100a86101e0565b6040516100b591906105ed565b60405180910390f35b6100d860048036038101906100d39190610488565b6101e6565b005b6060600180548060200260200160405190810160405280929190818152602001828054801561015e57602002820191906000526020600020905b8160009054906101000a900473ffffffffffffffffffffffffffffffffffffffff1673ffffffffffffffffffffffffffffffffffffffff1681526020019060010190808311610114575b5050505050905090565b60008060008060008573ffffffffffffffffffffffffffffffffffffffff1673ffffffffffffffffffffffffffffffffffffffff168152602001908152602001600020604051806040016040529081600082015481526020016001820154815250509050806000015181602001519250925050915091565b60025481565b60008111610229576040517f08c379a0000000000000000000000000000000000000000000000000000000008152600401610220906105cd565b60405180910390fd5b60008060003373ffffffffffffffffffffffffffffffffffffffff1673ffffffffffffffffffffffffffffffffffffffff16815260200190815260200160002060010154141561031a576001339080600181540180825580915050600190039060005260206000200160009091909190916101000a81548173ffffffffffffffffffffffffffffffffffffffff021916908373ffffffffffffffffffffffffffffffffffffffff1602179055503373ffffffffffffffffffffffffffffffffffffffff167f650e3d334de4d5e09c7c65afd02455857fea2913f96d605a7460fe08217115c760405160405180910390a25b806000803373ffffffffffffffffffffffffffffffffffffffff1673ffffffffffffffffffffffffffffffffffffffff168152602001908152602001600020600001600082825461036b919061067b565b9250508190555060016000803373ffffffffffffffffffffffffffffffffffffffff1673ffffffffffffffffffffffffffffffffffffffff16815260200190815260200160002060010160008282546103c4919061067b565b9250508190555080600260008282546103dd919061067b565b925050819055503373ffffffffffffffffffffffffffffffffffffffff167f264f630d9efa0d07053a31163641d9fcc0adafc9d9e76f1c37c2ce3a558d2c528260405161042a91906105ed565b60405180910390a250565b6000813590506104448161073c565b92915050565b60008135905061045981610753565b92915050565b60006020828403121561047157600080fd5b600061047f84828501610435565b91505092915050565b60006020828403121561049a57600080fd5b60006104a88482850161044a565b91505092915050565b60006104bd83836104c9565b60208301905092915050565b6104d2816106d1565b82525050565b60006104e382610641565b6104ed8185610659565b93506104f883610631565b8060005b8381101561052957815161051088826104b1565b975061051b8361064c565b9250506001810190506104fc565b5085935050505092915050565b600061054360228361066a565b91507f446f6e6174696f6e206d7573742062652067726561746572207468616e207a6560008301527f726f0000000000000000000000000000000000000000000000000000000000006020830152604082019050919050565b6105a581610703565b82525050565b600060208201905081810360008301526105c581846104d8565b905092915050565b600060208201905081810360008301526105e681610536565b9050919050565b6000602082019050610602600083018461059c565b92915050565b600060408201905061061d600083018561059c565b61062a602083018461059c565b9392505050565b6000819050602082019050919050565b600081519050919050565b6000602082019050919050565b600082825260208201905092915050565b600082825260208201905092915050565b600061068682610703565b915061069183610703565b9250827fffffffffffffffffffffffffffffffffffffffffffffffffffffffffffffffff038211156106c6576106c561070d565b5b828201905092915050565b60006106dc826106e3565b9050919050565b600073ffffffffffffffffffffffffffffffffffffffff82169050919050565b6000819050919050565b7f4e487b7100000000000000000000000000000000000000000000000000000000600052601160045260246000fd5b610745816106d1565b811461075057600080fd5b50565b61075c81610703565b811461076757600080fd5b5056fea2646970667358221220b29c42c2df99414b3a453b31667f875dc0a153be9eb0b67c4090a26bcfca65ae64736f6c63430008000033",
  "immutableReferences": {},
  "source": "// SPDX-License-Identifier: MIT\npragma solidity ^0.8.0;\n\ncontract DonationTracker {\n    // Struct to represent a donor\n    struct Donor {\n        uint256 totalDonated; // Total amount donated by the donor\n        uint256 donationCount; // Number of donations made by the donor\n    }\n\n    // State variables\n    mapping(address => Donor) private donors; // Mapping to track donor data\n    address[] private donorList; // List of unique donor addresses\n    uint256 public totalDonations; // Total donations received by the contract\n\n    // Events\n    event DonationReceived(address indexed donor, uint256 amount);\n    event DonorAdded(address indexed donor);\n\n    // Function to donate to the contract\n    function donate(uint256 amount) public  {\n        require(amount > 0, \"Donation must be greater than zero\");\n\n        // Check if the donor is new\n        if (donors[msg.sender].donationCount == 0) {\n            donorList.push(msg.sender);\n            emit DonorAdded(msg.sender);\n        }\n\n        // Update donor's data\n        donors[msg.sender].totalDonated += amount;\n        donors[msg.sender].donationCount += 1;\n\n        // Update total donations\n        totalDonations += amount;\n\n        emit DonationReceived(msg.sender, amount);\n    }\n\n    // Function to get the total amount donated by a specific donor\n    function getDonorInfo(address donor) external view returns (uint256 totalDonated, uint256 donationCount) {\n        Donor memory donorData = donors[donor];\n        return (donorData.totalDonated, donorData.donationCount);\n    }\n\n    // Function to get the list of all donors\n    function getAllDonors() external view returns (address[] memory) {\n        return donorList;\n    }\n\n   \n\n}\n",
  "sourcePath": "/Users/ryan/Developer/ScholarChain/blockchain/contracts/DonationContract.sol",
  "compiler": {
    "name": "solc",
    "version": "0.8.0+commit.c7dfd78e.Emscripten.clang"
  },
  "schemaVersion": "3.4.16",
  "updatedAt": "2025-03-13T18:19:53.090Z",
  "networkType": "ethereum",
  "devdoc": {
    "kind": "dev",
    "methods": {},
    "version": 1
  },
  "userdoc": {
    "kind": "user",
    "methods": {},
    "version": 1
  }
}