{
  "contractName": "LoanRepayment",
  "abi": [
    {
      "inputs": [
        {
          "internalType": "address",
          "name": "_student",
          "type": "address"
        },
        {
          "internalType": "uint256",
          "name": "_loanAmount",
          "type": "uint256"
        }
      ],
      "stateMutability": "nonpayable",
      "type": "constructor"
    },
    {
      "inputs": [],
      "name": "amountRepaid",
      "outputs": [
        {
          "internalType": "uint256",
          "name": "",
          "type": "uint256"
        }
      ],
      "stateMutability": "view",
      "type": "function"
    },
    {
      "inputs": [],
      "name": "discountGiven",
      "outputs": [
        {
          "internalType": "uint256",
          "name": "",
          "type": "uint256"
        }
      ],
      "stateMutability": "view",
      "type": "function"
    },
    {
      "inputs": [],
      "name": "loanAmount",
      "outputs": [
        {
          "internalType": "uint256",
          "name": "",
          "type": "uint256"
        }
      ],
      "stateMutability": "view",
      "type": "function"
    },
    {
      "inputs": [],
      "name": "student",
      "outputs": [
        {
          "internalType": "address",
          "name": "",
          "type": "address"
        }
      ],
      "stateMutability": "view",
      "type": "function"
    },
    {
      "inputs": [
        {
          "internalType": "uint256",
          "name": "amount",
          "type": "uint256"
        }
      ],
      "name": "repay",
      "outputs": [],
      "stateMutability": "nonpayable",
      "type": "function"
    },
    {
      "inputs": [],
      "name": "getRemainingAmount",
      "outputs": [
        {
          "internalType": "uint256",
          "name": "",
          "type": "uint256"
        }
      ],
      "stateMutability": "view",
      "type": "function"
    }
  ],
  "bytecode": "0x608060405234801561001057600080fd5b50604051610683380380610683833981810160405281019061003291906100ba565b816000806101000a81548173ffffffffffffffffffffffffffffffffffffffff021916908373ffffffffffffffffffffffffffffffffffffffff16021790555080600181905550600060028190555060006003819055505050610160565b60008151905061009f81610132565b92915050565b6000815190506100b481610149565b92915050565b600080604083850312156100cd57600080fd5b60006100db85828601610090565b92505060206100ec858286016100a5565b9150509250929050565b600061010182610108565b9050919050565b600073ffffffffffffffffffffffffffffffffffffffff82169050919050565b6000819050919050565b61013b816100f6565b811461014657600080fd5b50565b61015281610128565b811461015d57600080fd5b50565b6105148061016f6000396000f3fe608060405234801561001057600080fd5b50600436106100625760003560e01c8063371fd8e6146100675780633dbafc1c14610083578063699450e8146100a15780639d585f7f146100bf578063dabaae11146100dd578063ee86afd8146100fb575b600080fd5b610081600480360381019061007c9190610284565b610119565b005b61008b610215565b60405161009891906103a6565b60405180910390f35b6100a961021b565b6040516100b6919061034b565b60405180910390f35b6100c761023f565b6040516100d491906103a6565b60405180910390f35b6100e5610245565b6040516100f291906103a6565b60405180910390f35b610103610269565b60405161011091906103a6565b60405180910390f35b60008054906101000a900473ffffffffffffffffffffffffffffffffffffffff1673ffffffffffffffffffffffffffffffffffffffff163373ffffffffffffffffffffffffffffffffffffffff16146101a7576040517f08c379a000000000000000000000000000000000000000000000000000000000815260040161019e90610386565b60405180910390fd5b600154816002546101b891906103d2565b11156101f9576040517f08c379a00000000000000000000000000000000000000000000000000000000081526004016101f090610366565b60405180910390fd5b806002600082825461020b91906103d2565b9250508190555050565b60035481565b60008054906101000a900473ffffffffffffffffffffffffffffffffffffffff1681565b60015481565b600060035460025460015461025a9190610428565b6102649190610428565b905090565b60025481565b60008135905061027e816104c7565b92915050565b60006020828403121561029657600080fd5b60006102a48482850161026f565b91505092915050565b6102b68161045c565b82525050565b60006102c9600e836103c1565b91507f43616e6e6f74206f7665727061790000000000000000000000000000000000006000830152602082019050919050565b6000610309601c836103c1565b91507f4f6e6c7920746865206170706c6963616e742063616e207265706179000000006000830152602082019050919050565b6103458161048e565b82525050565b600060208201905061036060008301846102ad565b92915050565b6000602082019050818103600083015261037f816102bc565b9050919050565b6000602082019050818103600083015261039f816102fc565b9050919050565b60006020820190506103bb600083018461033c565b92915050565b600082825260208201905092915050565b60006103dd8261048e565b91506103e88361048e565b9250827fffffffffffffffffffffffffffffffffffffffffffffffffffffffffffffffff0382111561041d5761041c610498565b5b828201905092915050565b60006104338261048e565b915061043e8361048e565b92508282101561045157610450610498565b5b828203905092915050565b60006104678261046e565b9050919050565b600073ffffffffffffffffffffffffffffffffffffffff82169050919050565b6000819050919050565b7f4e487b7100000000000000000000000000000000000000000000000000000000600052601160045260246000fd5b6104d08161048e565b81146104db57600080fd5b5056fea2646970667358221220458f88fa7ca40014f73713f82c10c921bd1bc7a60d1a28c023f3052a7d78b07064736f6c63430008000033",
  "immutableReferences": {},
  "source": "pragma solidity ^0.8.0;\r\n\r\ncontract LoanRepayment {\r\n    address public student;\r\n    uint public loanAmount;\r\n    uint public amountRepaid;\r\n    uint public discountGiven;\r\n    \r\n    constructor(address _student, uint256 _loanAmount) {\r\n        student = _student;\r\n        loanAmount = _loanAmount;\r\n        amountRepaid = 0;\r\n        discountGiven = 0;\r\n    }\r\n\r\n\r\n    function repay(uint256 amount) public {\r\n        require(msg.sender == student, \"Only the applicant can repay\");\r\n        require(amountRepaid + amount <= loanAmount, \"Cannot overpay\");\r\n        amountRepaid += amount;\r\n    }\r\n\r\n     function getRemainingAmount() public view returns (uint256) {\r\n        return loanAmount - amountRepaid - discountGiven;\r\n    }\r\n}\r\n",
  "sourcePath": "D:\\FAST_NUCES\\FYP_ScholarChain\\V3\\ScholarChain\\blockchain\\contracts\\LoanRepayment.sol",
  "compiler": {
    "name": "solc",
    "version": "0.8.0+commit.c7dfd78e.Emscripten.clang"
  },
  "schemaVersion": "3.4.16",
  "updatedAt": "2025-03-11T18:28:56.017Z",
  "networkType": "ethereum",
  "devdoc": {
    "kind": "dev",
    "methods": {},
    "version": 1
  },
  "userdoc": {
    "kind": "user",
    "methods": {},
    "version": 1
  }
}