{
  "contractName": "LoanRepayment",
  "abi": [
    {
      "inputs": [],
      "stateMutability": "nonpayable",
      "type": "constructor"
    },
    {
      "anonymous": false,
      "inputs": [
        {
          "indexed": true,
          "internalType": "address",
          "name": "student",
          "type": "address"
        },
        {
          "indexed": false,
          "internalType": "uint256",
          "name": "loanAmount",
          "type": "uint256"
        },
        {
          "indexed": false,
          "internalType": "uint256",
          "name": "totalPayments",
          "type": "uint256"
        },
        {
          "indexed": false,
          "internalType": "uint256",
          "name": "paymentSize",
          "type": "uint256"
        }
      ],
      "name": "LoanCreated",
      "type": "event"
    },
    {
      "anonymous": false,
      "inputs": [
        {
          "indexed": true,
          "internalType": "address",
          "name": "student",
          "type": "address"
        },
        {
          "indexed": false,
          "internalType": "uint256",
          "name": "totalAmountPaid",
          "type": "uint256"
        }
      ],
      "name": "LoanPaidOff",
      "type": "event"
    },
    {
      "anonymous": false,
      "inputs": [
        {
          "indexed": true,
          "internalType": "address",
          "name": "student",
          "type": "address"
        },
        {
          "indexed": false,
          "internalType": "uint256",
          "name": "amountPaid",
          "type": "uint256"
        }
      ],
      "name": "PaymentMade",
      "type": "event"
    },
    {
      "inputs": [],
      "name": "amountPaid",
      "outputs": [
        {
          "internalType": "uint256",
          "name": "",
          "type": "uint256"
        }
      ],
      "stateMutability": "view",
      "type": "function",
      "constant": true
    },
    {
      "inputs": [],
      "name": "company",
      "outputs": [
        {
          "internalType": "address",
          "name": "",
          "type": "address"
        }
      ],
      "stateMutability": "view",
      "type": "function",
      "constant": true
    },
    {
      "inputs": [],
      "name": "loanAmount",
      "outputs": [
        {
          "internalType": "uint256",
          "name": "",
          "type": "uint256"
        }
      ],
      "stateMutability": "view",
      "type": "function",
      "constant": true
    },
    {
      "inputs": [],
      "name": "loanPaidOff",
      "outputs": [
        {
          "internalType": "bool",
          "name": "",
          "type": "bool"
        }
      ],
      "stateMutability": "view",
      "type": "function",
      "constant": true
    },
    {
      "inputs": [],
      "name": "paymentSize",
      "outputs": [
        {
          "internalType": "uint256",
          "name": "",
          "type": "uint256"
        }
      ],
      "stateMutability": "view",
      "type": "function",
      "constant": true
    },
    {
      "inputs": [],
      "name": "paymentsMade",
      "outputs": [
        {
          "internalType": "uint256",
          "name": "",
          "type": "uint256"
        }
      ],
      "stateMutability": "view",
      "type": "function",
      "constant": true
    },
    {
      "inputs": [],
      "name": "student",
      "outputs": [
        {
          "internalType": "address",
          "name": "",
          "type": "address"
        }
      ],
      "stateMutability": "view",
      "type": "function",
      "constant": true
    },
    {
      "inputs": [],
      "name": "totalPayments",
      "outputs": [
        {
          "internalType": "uint256",
          "name": "",
          "type": "uint256"
        }
      ],
      "stateMutability": "view",
      "type": "function",
      "constant": true
    },
    {
      "inputs": [
        {
          "internalType": "address",
          "name": "_student",
          "type": "address"
        },
        {
          "internalType": "uint256",
          "name": "_loanAmount",
          "type": "uint256"
        },
        {
          "internalType": "uint256",
          "name": "_totalPayments",
          "type": "uint256"
        },
        {
          "internalType": "uint256",
          "name": "_paymentSize",
          "type": "uint256"
        }
      ],
      "name": "createLoan",
      "outputs": [],
      "stateMutability": "nonpayable",
      "type": "function"
    },
    {
      "inputs": [],
      "name": "makePayment",
      "outputs": [],
      "stateMutability": "payable",
      "type": "function",
      "payable": true
    },
    {
      "inputs": [],
      "name": "getLoanDetails",
      "outputs": [
        {
          "internalType": "uint256",
          "name": "",
          "type": "uint256"
        },
        {
          "internalType": "uint256",
          "name": "",
          "type": "uint256"
        },
        {
          "internalType": "uint256",
          "name": "",
          "type": "uint256"
        },
        {
          "internalType": "uint256",
          "name": "",
          "type": "uint256"
        },
        {
          "internalType": "uint256",
          "name": "",
          "type": "uint256"
        },
        {
          "internalType": "bool",
          "name": "",
          "type": "bool"
        }
      ],
      "stateMutability": "view",
      "type": "function",
      "constant": true
    }
  ],
  "bytecode": "0x608060405234801561001057600080fd5b50336000806101000a81548173ffffffffffffffffffffffffffffffffffffffff021916908373ffffffffffffffffffffffffffffffffffffffff160217905550610c3d806100606000396000f3fe60806040526004361061009b5760003560e01c806377369fd11161006457806377369fd1146101775780639d585f7f146101a25780639e8101c6146101cd578063a3b9e39d146101f6578063d8d7970014610226578063fda4160c146102305761009b565b80625b4487146100a0578063216340c3146100cb5780634ff59cf8146100f65780636904c94d14610121578063699450e81461014c575b600080fd5b3480156100ac57600080fd5b506100b561025b565b6040516100c29190610a48565b60405180910390f35b3480156100d757600080fd5b506100e0610261565b6040516100ed9190610a48565b60405180910390f35b34801561010257600080fd5b5061010b610267565b6040516101189190610a48565b60405180910390f35b34801561012d57600080fd5b5061013661026d565b6040516101439190610972565b60405180910390f35b34801561015857600080fd5b50610161610291565b60405161016e9190610972565b60405180910390f35b34801561018357600080fd5b5061018c6102b7565b604051610199919061098d565b60405180910390f35b3480156101ae57600080fd5b506101b76102ca565b6040516101c49190610a48565b60405180910390f35b3480156101d957600080fd5b506101f460048036038101906101ef919061077c565b6102d0565b005b34801561020257600080fd5b5061020b6104ae565b60405161021d96959493929190610a9a565b60405180910390f35b61022e6104ea565b005b34801561023c57600080fd5b5061024561074c565b6040516102529190610a48565b60405180910390f35b60035481565b60065481565b60055481565b60008054906101000a900473ffffffffffffffffffffffffffffffffffffffff1681565b600160009054906101000a900473ffffffffffffffffffffffffffffffffffffffff1681565b600760009054906101000a900460ff1681565b60025481565b60008054906101000a900473ffffffffffffffffffffffffffffffffffffffff1673ffffffffffffffffffffffffffffffffffffffff163373ffffffffffffffffffffffffffffffffffffffff161461035e576040517f08c379a0000000000000000000000000000000000000000000000000000000008152600401610355906109c8565b60405180910390fd5b60008211801561036e5750600081115b6103ad576040517f08c379a00000000000000000000000000000000000000000000000000000000081526004016103a4906109a8565b60405180910390fd5b83600160006101000a81548173ffffffffffffffffffffffffffffffffffffffff021916908373ffffffffffffffffffffffffffffffffffffffff160217905550826002819055508160038190555080600481905550600060058190555060006006819055506000600760006101000a81548160ff021916908315150217905550600160009054906101000a900473ffffffffffffffffffffffffffffffffffffffff1673ffffffffffffffffffffffffffffffffffffffff167f1804eb76dc9809be7ef188388aa1aeb765881fd848377be891234e5c584345fe6002546003546004546040516104a093929190610a63565b60405180910390a250505050565b600080600080600080600254600354600454600554600654600760009054906101000a900460ff16955095509550955095509550909192939495565b600160009054906101000a900473ffffffffffffffffffffffffffffffffffffffff1673ffffffffffffffffffffffffffffffffffffffff163373ffffffffffffffffffffffffffffffffffffffff161461057a576040517f08c379a000000000000000000000000000000000000000000000000000000000815260040161057190610a08565b60405180910390fd5b600760009054906101000a900460ff16156105ca576040517f08c379a00000000000000000000000000000000000000000000000000000000081526004016105c190610a28565b60405180910390fd5b600454341461060e576040517f08c379a0000000000000000000000000000000000000000000000000000000008152600401610605906109e8565b60405180910390fd5b34600660008282546106209190610b0c565b9250508190555060016005600082825461063a9190610b0c565b92505081905550600160009054906101000a900473ffffffffffffffffffffffffffffffffffffffff1673ffffffffffffffffffffffffffffffffffffffff167f3a2d0e41c506b136330c6e5e0295ccbf0966daece99bfe7c89020cc01dbfb8d6346040516106a99190610a48565b60405180910390a26002546006541061074a576001600760006101000a81548160ff021916908315150217905550600160009054906101000a900473ffffffffffffffffffffffffffffffffffffffff1673ffffffffffffffffffffffffffffffffffffffff167f8b3d257c142facfb05f1a6516df26e844831951861a2f2805a32daffc60407356006546040516107419190610a48565b60405180910390a25b565b60045481565b60008135905061076181610bd9565b92915050565b60008135905061077681610bf0565b92915050565b6000806000806080858703121561079257600080fd5b60006107a087828801610752565b94505060206107b187828801610767565b93505060406107c287828801610767565b92505060606107d387828801610767565b91505092959194509250565b6107e881610b62565b82525050565b6107f781610b74565b82525050565b600061080a601783610afb565b91507f496e76616c6964207061796d656e742064657461696c730000000000000000006000830152602082019050919050565b600061084a601d83610afb565b91507f4f6e6c7920636f6d70616e792063616e20637265617465206c6f616e730000006000830152602082019050919050565b600061088a601983610afb565b91507f5061796d656e742073697a6520697320696e636f7272656374000000000000006000830152602082019050919050565b60006108ca602283610afb565b91507f4f6e6c79207468652073747564656e742063616e206d616b65207061796d656e60008301527f74730000000000000000000000000000000000000000000000000000000000006020830152604082019050919050565b6000610930601883610afb565b91507f4c6f616e20697320616c72656164792070616964206f666600000000000000006000830152602082019050919050565b61096c81610ba0565b82525050565b600060208201905061098760008301846107df565b92915050565b60006020820190506109a260008301846107ee565b92915050565b600060208201905081810360008301526109c1816107fd565b9050919050565b600060208201905081810360008301526109e18161083d565b9050919050565b60006020820190508181036000830152610a018161087d565b9050919050565b60006020820190508181036000830152610a21816108bd565b9050919050565b60006020820190508181036000830152610a4181610923565b9050919050565b6000602082019050610a5d6000830184610963565b92915050565b6000606082019050610a786000830186610963565b610a856020830185610963565b610a926040830184610963565b949350505050565b600060c082019050610aaf6000830189610963565b610abc6020830188610963565b610ac96040830187610963565b610ad66060830186610963565b610ae36080830185610963565b610af060a08301846107ee565b979650505050505050565b600082825260208201905092915050565b6000610b1782610ba0565b9150610b2283610ba0565b9250827fffffffffffffffffffffffffffffffffffffffffffffffffffffffffffffffff03821115610b5757610b56610baa565b5b828201905092915050565b6000610b6d82610b80565b9050919050565b60008115159050919050565b600073ffffffffffffffffffffffffffffffffffffffff82169050919050565b6000819050919050565b7f4e487b7100000000000000000000000000000000000000000000000000000000600052601160045260246000fd5b610be281610b62565b8114610bed57600080fd5b50565b610bf981610ba0565b8114610c0457600080fd5b5056fea2646970667358221220f7ca58cf2d1651bbe0f446780aa30e6e9badc9dad8fa569e2d773957b12b6d7c64736f6c63430008000033",
  "immutableReferences": {},
  "source": "pragma solidity ^0.8.0;\r\n\r\ncontract LoanRepayment {\r\n    address public company;\r\n    address public student;\r\n    uint public loanAmount;\r\n    uint public totalPayments;\r\n    uint public paymentSize;\r\n    uint public paymentsMade;\r\n    uint public amountPaid;\r\n    bool public loanPaidOff;\r\n\r\n    event LoanCreated(\r\n        address indexed student,\r\n        uint loanAmount,\r\n        uint totalPayments,\r\n        uint paymentSize\r\n    );\r\n    event PaymentMade(address indexed student, uint amountPaid);\r\n    event LoanPaidOff(address indexed student, uint totalAmountPaid);\r\n\r\n    constructor() {\r\n        company = msg.sender;\r\n    }\r\n\r\n    function createLoan(\r\n        address _student,\r\n        uint _loanAmount,\r\n        uint _totalPayments,\r\n        uint _paymentSize\r\n    ) public {\r\n        require(msg.sender == company, \"Only company can create loans\");\r\n        require(\r\n            _totalPayments > 0 && _paymentSize > 0,\r\n            \"Invalid payment details\"\r\n        );\r\n\r\n        student = _student;\r\n        loanAmount = _loanAmount;\r\n        totalPayments = _totalPayments;\r\n        paymentSize = _paymentSize;\r\n        paymentsMade = 0;\r\n        amountPaid = 0;\r\n        loanPaidOff = false;\r\n\r\n        emit LoanCreated(student, loanAmount, totalPayments, paymentSize);\r\n    }\r\n\r\n    function makePayment() public payable {\r\n        require(msg.sender == student, \"Only the student can make payments\");\r\n        require(!loanPaidOff, \"Loan is already paid off\");\r\n        require(msg.value == paymentSize, \"Payment size is incorrect\");\r\n\r\n        amountPaid += msg.value;\r\n        paymentsMade += 1;\r\n\r\n        emit PaymentMade(student, msg.value);\r\n\r\n        if (amountPaid >= loanAmount) {\r\n            loanPaidOff = true;\r\n            emit LoanPaidOff(student, amountPaid);\r\n        }\r\n    }\r\n\r\n    function getLoanDetails()\r\n        public\r\n        view\r\n        returns (uint, uint, uint, uint, uint, bool)\r\n    {\r\n        return (\r\n            loanAmount,\r\n            totalPayments,\r\n            paymentSize,\r\n            paymentsMade,\r\n            amountPaid,\r\n            loanPaidOff\r\n        );\r\n    }\r\n}\r\n",
  "sourcePath": "N:\\bruh test\\blockchain\\contracts\\LoanRepayment.sol",
  "compiler": {
    "name": "solc",
    "version": "0.8.0+commit.c7dfd78e.Emscripten.clang"
  },
  "schemaVersion": "3.4.16",
  "updatedAt": "2024-12-10T21:13:10.072Z",
  "networkType": "ethereum",
  "devdoc": {
    "kind": "dev",
    "methods": {},
    "version": 1
  },
  "userdoc": {
    "kind": "user",
    "methods": {},
    "version": 1
  }
}